:020000040100F9
:10000000383A0020F5790001F1790001F179000119
:10001000F1790001F1790001F1790001000000009F
:10002000000000000000000000000000F179000165
:10003000F179000100000000F17900016524000160
:10004000F1790001F1790001F1790001F179000104
:10005000F1790001F1790001F1790001000000005F
:10006000A128000100000000000000002D74000124
:100070004174000100000000F1790001F1790001F4
:10008000D9290001F1290001F1790001F17900017C
:10009000F1790001F179000100000000F17900011F
:1000A000F1790001F1790001F1790001F1790001A4
:1000B000F1790001F1790001F1790001F179000194
:1000C00019780001F1790001F1790001F17900015D
:1000D000F179000155740001B9280001F17900019E
:1000E000F1790001F179000110B5054C237833B99D
:1000F000044B13B10448AFF300800123237010BDFB
:100100003404002000000000508C00010C4B43B16F
:100110000C480D4910B5AFF300800C48036823B9B3
:1001200010BD0A48036833B97047094B002BF7D05C
:10013000BDE810401847064B002BF5D0184700BF0C
:1001400000000000508C000138040020508C000199
:1001500000000000044BDB6B13F4803F03D1034A23
:10016000D38A0133D3827047000E0E40D0040020A2
:10017000044BDB6B13F4801F03D1034A138B013351
:1001800013837047000E0E40D0040020044BDB6B3D
:1001900013F4002F03D1034A538B01335383704769
:1001A000000E0E40D0040020044BDB6B13F0006FF8
:1001B00003D1034A938B013393837047000E0E40A3
:1001C000D0040020024A536B43F48073536370479A
:1001D00000100E40044B1A6B42F400721A631A6B43
:1001E00042F040021A63704700100E40044B1A6B35
:1001F00042F400721A635A6B42F040025A6370472D
:1002000000100E40044B5A6B42F400725A631A6B92
:1002100042F040021A63704700100E40044B5A6BC4
:1002200042F400725A635A6B42F040025A637047BC
:1002300000100E4038B504460C20144DA8470C2081
:10024000A847134B1A6842F400721A601A6842F009
:1002500040021A601A6942F040021A611A6942F4B7
:1002600000721A610B4BDC80012C08D024B1022CE7
:1002700008D0094B984738BD084B984738BD084B04
:10028000984738BD074B984738BD00BF69740001D7
:1002900000100E40D0040020D50100011D02000115
:1002A00005020001ED010001024A536B43F0040313
:1002B0005363704700C00048024A136B43F00403C5
:1002C0001363704700C0004808B50B20154B9847D2
:1002D0001548436943F400534361036843F40053F2
:1002E0000360436E43F400534366036A43F40053D0
:1002F0000362D0F8843043F40053C0F884304FF4E4
:1003000000510A4B98470021094B5982094B4FF481
:100310000062C3F88020C3F8802183F80B131A60B1
:1003200008BD00BF69740001000E0E408F7300010C
:10033000D004002000E100E008B50B20154B9847E1
:100340001548436943F480234361036843F48023E1
:100350000360436E43F480234366036A43F48023BF
:100360000362D0F8843043F48023C0F884304FF423
:1003700080210A4B98470021094B9982094B4FF481
:100380000062C3F88020C3F8802183F80B131A6041
:1003900008BD00BF69740001000E0E408F7300019C
:1003A000D004002000E100E030B583B00B201B4BEF
:1003B00098471B4C636943F480336361236843F4BB
:1003C00080332360636E43F480336366236A43F4AF
:1003D00080332362D4F8843043F48033C4F884300B
:1003E000104B009350234FF480320B2120460E4DCA
:1003F000A8474FF4803120460C4B984700210C4B06
:10040000D9820C4B4FF40062C3F88020C3F88021DE
:1004100083F80B131A6003B030BD00BF697400018C
:10042000000E0E4055010001ED7300018F730001B5
:10043000D004002000E100E030B583B00B201B4B5E
:1004400098471B4C636943F480136361236843F44A
:1004500080132360636E43F480136366236A43F45E
:1004600080132362D4F8843043F48013C4F88430BA
:10047000104B009350234FF480120B2120460E4D59
:10048000A8474FF4801120460C4B984700210C4B95
:1004900019830C4B4FF40062C3F88020C3F880210D
:1004A00083F80B131A6003B030BD00BF69740001FC
:1004B000000E0E4071010001ED7300018F73000109
:1004C000D004002000E100E030B583B00B201B4BCE
:1004D00098471B4C636943F400236361236843F42A
:1004E00000232360636E43F400236366236A43F4AE
:1004F00000232362D4F8843043F40023C4F884300A
:10050000104B009350234FF400220B2120460E4D38
:10051000A8474FF4002120460C4B984700210C4B74
:1005200059830C4B4FF40062C3F88020C3F880213C
:1005300083F80B131A6003B030BD00BF697400016B
:10054000000E0E408D010001ED7300018F7300015C
:10055000D004002000E100E030B583B00B201B4B3D
:1005600098471B4C636943F000636361236843F061
:1005700000632360636E43F000636366236A43F0A5
:1005800000632362D4F8843043F00063C4F88430FD
:10059000104B009350234FF000620B2120460E4D6C
:1005A000A8474FF0006120460C4B984700210C4BA8
:1005B00099830C4B4FF40062C3F88020C3F880216C
:1005C00083F80B131A6003B030BD00BF69740001DB
:1005D000000E0E40A9010001ED7300018F730001B0
:1005E000D004002000E100E008B50B200C4B984738
:1005F0000C4B5A6942F080525A611A6842F080529C
:100600001A605A6E42F080525A661A6A42F080525C
:100610001A62D3F8842042F08052C3F8842008BDC7
:1006200069740001000E0E4008B50C200C4B984771
:100630000C4B5A6942F080025A611A6842F08002FB
:100640001A605A6E42F080025A661A6A42F08002BC
:100650001A62D3F8842042F08002C3F8842008BDD7
:100660006974000100100E4008B50B200D4B98472F
:100670000D4B5A6942F000525A611A6842F000521A
:100680001A600A494A6E42F080024A661A6A42F0CB
:1006900000521A62D3F8842042F00052C3F884203A
:1006A00008BD00BF69740001000E0E4000100E402E
:1006B00010B5124B1B88162B12D008D9402B1CD317
:1006C000422B0BD80E4B98470E4B984710BD062B6C
:1006D00006D0122B04D0022B0FD101E0822B0CD1BB
:1006E000074B9847084B9847084B9847054B984746
:1006F000074B9847074CA047A04710BDD0040020E7
:10070000C90200013904000139030001A9030001F5
:10071000C90400015905000110B52B4B1B88162B8D
:1007200044D03AD9402B04D3422B3DD80322264B48
:10073000DA80264B9847264B9847264C236943F08E
:1007400004032361636E43F004036366224B9847FE
:10075000236943F020032361636E43F02003636643
:10076000636B43F020036363236943F01003236149
:10077000636E43F010036366636B43F010036363BF
:10078000636943F008036361636E43F008036366C3
:10079000236B43F00803236310BD062B06D0122BF6
:1007A00004D0022BC5D101E0822BC2D10B4A1369C0
:1007B00043F4807313610A4B98470320094B984711
:1007C000094B9847B5E700BFD00400206906000137
:1007D000E905000100C00048B902000100100E4008
:1007E000C501000135020001290600012DE9F0478D
:1007F000454B1B88162B37D02AD9402B2ED3422BA2
:1008000030D8060206F4FE464FF008094D466FEA5E
:1008100046466FEA5646B6B23C4B98473C4B5A6B3D
:1008200042F020025A635A6942F008025A611A697A
:1008300042F010021A611A6942F020021A61CA4697
:10084000B9F1000F33D000271C46DFF8C88026E03E
:10085000062B09D0122B07D0022B05D04FF0000930
:100860000125D4E7822BF9D1C0F30E064FF0100911
:100870000125CCE7236B43F0100323632846C047D0
:10088000236B43F0200323632846C047636B43F088
:10089000200363637600B6B20137574507D016F4DC
:1008A000004FE7D1636B43F010036363E6E7102763
:1008B0000026DFF86080164C07E000BF00BF636BC6
:1008C00043F020036363013F0FD02846C047236BEA
:1008D00043F02003236376002846C047E36B13F000
:1008E000080FEAD046F00106E9E72846094CA04780
:1008F000094B98472846A047B9F1000F14BF30466E
:100900000020BDE8F08700BFD0040020A90200014C
:1009100000C00048FD590001B90200012DE9F04175
:100920000024DFF82081444F444E14E00623A8F849
:1009300000304FF43C7515E048F2010398424FD067
:1009400048F20303984256D042F21363984225D0EE
:1009500001340C2C35D814F0010FE7D04023A8F84F
:1009600000300525B8471420B0472846344B984737
:1009700000BF00BF42F21263984228D0DCD80128A1
:1009800044D000284ED00328E2D128462C4B98476B
:100990000328DDD112222B4B1A801BE01620284B96
:1009A000984748F29703984207D048F27703984255
:1009B000CED14122234B1A800CE04022214B1A80D9
:1009C0001024102C06D000221E4B1A8002E0422276
:1009D0001C4B1A801B4B00221A811A82BDE8F08141
:1009E0002846174B984748F201039842B0D1062297
:1009F000144B1A80EEE72846114B984748F2030340
:100A00009842A5D116220F4B1A80E3E730200C4BF9
:100A1000984746F6860398420CBF02228222094B71
:100A20001A80D7E72846064B9847002890D18222A3
:100A3000044B1A80CEE700BF19070001FD5E0001DC
:100A4000ED070001D00400202DE9F843C0F30E00AB
:100A500041EA00452F4B1B88162B2FD008D9402B7D
:100A60000CD3422B28D82D024FF01809082708E094
:100A7000062B23D0122B21D0022B1FD04FF00009C0
:100A80000127254B9847254B5A6B42F020025A63A9
:100A90005A6942F008025A611A6942F010021A615A
:100AA0001A6942F020021A61B9F1000F25D0002620
:100AB0001C46DFF86C8019E0822BDFD14FF0200953
:100AC0000127DEE7236B43F0100323633846C0475A
:100AD000236B43F0200323633846C047636B43F026
:100AE000200363636D000136B14506D0002DE9DBBC
:100AF000636B43F010036363E8E73846084CA04794
:100B0000084B98473846A04719F1000018BF01204C
:100B1000BDE8F883D0040020A902000100C000480D
:100B2000FD590001B902000110B504460846044B06
:100B3000984700BF2070000A60702E2010BD00BFD3
:100B4000ED07000108B50346084659781B7843EACB
:100B50000121034B9847002814BF2F20022008BD15
:100B6000490A000108B51D4B1A8922F0FF021A81BB
:100B70001A88A2F140039BB2022B1DD9822A27D0EA
:100B80009620174B984710F0100F04D0134A137A91
:100B900043F00403137210F0200F04D00F4A137AAD
:100BA00043F00203137210F0400F04D00B4A137A83
:100BB00043F00103137208BD0120094B984710F060
:100BC000020FF8D0054A137A43F00103137208BDEF
:100BD0007220034B9847000AD5E700BFD0040020DD
:100BE000ED07000108B5012140F2D110064B9847EE
:100BF00030B90022054B5A810022044B9A8108BD6E
:100C00006522024B5A81F7E7490A0001D00400200F
:100C10002DE9F04107460E460A4CA0478046304673
:100C2000A04705463846A0470446804506D03846CA
:100C3000044DA84704463046A847054645EA044007
:100C4000BDE8F081ED070001082915D8DFE801F0C3
:100C50000507090B140D0F11130000097047C00898
:100C60007047800870474008704740007047800018
:100C70007047C0007047000170470000F0B40B0AD5
:100C8000CCB2642505FB04F4240A2B4EA6FB0326F4
:100C9000B60C2A4A02FB16367609294FA7FB062610
:100CA000F6094A0BA7FB0212D209264901FB1232B0
:100CB0002549A1FB0272520B42EA0612A1FB031660
:100CC000760B42F2107101FB16362049A1FB067625
:100CD000B60946EA0216A1FB031292094FF47A7193
:100CE00001FB12321A49A1FB0272520942EA0616AE
:100CF000A1FB0312520905FB12321649A1FB025255
:100D0000D20842EA0612A1FB0365ED0805EB850552
:100D1000A3EB450343EA0213A1FB0412D20842EA03
:100D2000031302EB8202A4EB420242EA03130360C4
:100D30000120F0BC704700BF83DE1B4340420F0020
:100D4000C55A7C0AA08601005917B7D1D34D62104D
:100D50001F85EB51CDCCCCCC2DE9F8438046764BAA
:100D60001B88822B60D04FEA11290026C9B24FF4AC
:100D70007A7707FB01F10F0A704D714A002348464C
:100D80003146A8471046194642F210720023A84780
:100D9000040142F21072002348463146A84710462B
:100DA00019464FF47A720023A847044324014FF4F4
:100DB0007A72002348463146A847104619466422F5
:100DC0000023A847044324016422002348463146F7
:100DD000A847104619460A220023A84704432401C5
:100DE0000A22002348463146A847144324016422BE
:100DF000002338463146A8470443240164220023D7
:100E000038463146A847104619460A220023A8470B
:100E1000044324010A22002338463146A8472243CE
:100E2000C8F80020BDE8F8830C4600254A01CB0E27
:100E3000521A63EB05039B0043EA92739200101968
:100E400043EB0501CB0043EA5073C200104619463C
:100E50003A4D40F635420023A84706460F4634A3D4
:100E6000D3E90023A84710461946364A0023A8476D
:100E7000C0B20401334A002330463946A847104621
:100E80001946314A0023A847C0B2044324012E4A20
:100E9000002330463946A84710461946284A002301
:100EA000A847C0B204432401254A002330463946EE
:100EB000A8471046194642F210720023A847C0B254
:100EC0000443240142F21072002330463946A847F9
:100ED000104619464FF47A720023A847C0B2044363
:100EE00024014FF47A72002330463946A847104651
:100EF000194664220023A847C0B204432401642297
:100F0000002330463946A847104619460A220023D6
:100F1000A847C0B2044324010A22002330463946C0
:100F2000A847D2B21443C8F80040BDE8F88300BF18
:100F300000E1F50500000000D0040020158000014C
:100F4000A08601008096980040420F0010B5C1F3C2
:100F50000E01184CA4FB0134640B42F2107202FB28
:100F60001414154AA2FB0434A409A2FB013292090D
:100F70004FF47A7303FB1212104BA3FB02E25209E7
:100F800042EA0412A3FB01435B09642404FB13132C
:100F90000B4CA4FB03E3DB0843EA0213A4FB01426E
:100FA000D20802EB8202A1EB420141EA0313036083
:100FB00010BD00BF5917B7D1D34D62101F85EB513B
:100FC000CDCCCCCC10B5184CA4FB0134640B42F250
:100FD000107202FB1414154AA2FB0434A409A2FBEC
:100FE000013292094FF47A7303FB1212104BA3FBE8
:100FF00002E2520942EA0412A3FB01435B096424A2
:1010000004FB13130B4CA4FB03E3DB0843EA0213BA
:10101000A4FB0142D20802EB8202A1EB420141EAA9
:1010200003130360012010BD5917B7D1D34D6210CF
:101030001F85EB51CDCCCCCC70B4642404FB01F102
:10104000334DA5FB01356D0E324A02FB1515324AB0
:10105000A2FB0535AD0DA2FB0132920D2F4B03FB18
:10106000121203F1854303F1031303F59043A3FB2D
:101070000262920C42EA0512A3FB01539B0C284D1D
:1010800005FB13135B09274EA6FB0353DB0943EA59
:1010900002134D09A6FB0525ED09234A02FB151590
:1010A000224AA2FB05656D0B45EA0313A2FB01254D
:1010B0006D0B42F2107202FB15151D4AA2FB05656D
:1010C000AD0945EA0315A2FB01239B094FF47A728F
:1010D00002FB1313174AA2FB03635B0943EA0515DE
:1010E000A2FB01235B0904FB1313134AA2FB034376
:1010F000DB0843EA0513A2FB0142D20802EB82029D
:10110000A1EB420141EA03110160012070BC70476C
:10111000893BE65500E1F5056BCA5F6B8096980048
:1011200040420F00C55A7C0AA08601005917B7D16A
:10113000D34D62101F85EB51CDCCCCCC10B5C1F393
:101140000E01184CA4FB0134640B42F2107202FB36
:101150001414154AA2FB0434A409A2FB013292091B
:101160004FF47A7303FB1212104BA3FB02E25209F5
:1011700042EA0412A3FB01435B09642404FB13133A
:101180000B4CA4FB03E3DB0843EA0213A4FB01427C
:10119000D20802EB8202A1EB420141EA0313036091
:1011A00010BD00BF5917B7D1D34D62101F85EB5149
:1011B000CDCCCCCC70B5062A09D8DFE802F00C06FD
:1011C0000E084C044E00662348E0652306E0002329
:1011D0000360032070BD612300E0692364260D468F
:1011E000044618461F4B984705FB00F35B0BB3FB07
:1011F000F6F359091C4AA2FB0121C9091B4800FB4F
:1012000011311B48A0FB0121480B1A49A1FB032106
:1012100089094FF47A7202FB1131174AA2FB01517E
:10122000490941EA0011A2FB03025209642000FBB4
:1012300012321248A0FB0252D20842EA0112A0FB6D
:101240000301C90801EB8101A3EB410343EA021248
:101250002260012070BD622300E06A234FF47A7699
:10126000BDE700BFED070001C55A7C0AA08601005A
:101270005917B7D1D34D62101F85EB51CDCCCCCCD3
:1012800008B5034B9847642303FB00F0800B08BDAF
:10129000ED07000138B50D46074B9847074B9847B7
:1012A0000749084B984704462846074B984701468C
:1012B0002046064B984738BDED070001857C0001AC
:1012C00097FF5040357D00018D7C00019D7E00011F
:1012D000F8B50446392901F20F80DFE811F03A0031
:1012E0006A0088000D08A600D600F4001201400133
:1012F0007301CF011802F70140027302C202180302
:10130000F70268034003E9034F0494047504BA0428
:10131000D60407053A05230556055C0770078B07B9
:101320009F07B507CB07E107F5078B05BC05EF0560
:10133000D8050B06270643065F067B068F06A30625
:10134000B706D406E806FC062C070C073C071C076A
:101350004C07A34B1A8822F004039BB2022B05D042
:10136000122B03D0822A01D003250DE0E921D920D8
:101370009C4B98479A4B9978000A9B4B984701469B
:1013800020469A4B98470546954B1B88403B9BB29D
:10139000022B00F223874920954B9847904B997870
:1013A000914B984701022046904B9847054600F024
:1013B00015BF8B4B1A8822F004039BB2022B06D078
:1013C000122B04D0822A02D0032500F007BFEA21A5
:1013D000DA20844B9847824B9978000A824B9847D1
:1013E00001462046814B9847054600F0F7BE7C4BEE
:1013F0001A8822F004039BB2022B06D0122B04D0D1
:10140000822A02D0032500F0E9BEEB21DB20754BD8
:101410009847734B9978000A734B984701462046CA
:10142000724B9847054600F0D9BE6D4B1A8822F0E2
:1014300004039BB2022B05D0122B03D0822A01D0C9
:1014400003250DE0ED21DD20664B9847644BD978EC
:10145000000A654B984701462046644B984705466D
:101460005F4B1B88403B9BB2022B00F2B7864820A3
:101470005F4B98475A4BD9785B4B984701022046FF
:101480005A4B9847054600F0A9BE554B1A8822F0E2
:1014900004039BB2022B06D0122B04D0822A02D066
:1014A000032500F09BBEEE21DE204E4B98474C4BAF
:1014B000D978000A4C4B9847014620464B4B984739
:1014C000054600F08BBE464B1A8822F004039BB2FF
:1014D000022B06D0122B04D0822A02D0032500F062
:1014E0007DBEEF21DF203F4B98473D4BD978000A66
:1014F0003D4B9847014620463C4B9847054600F037
:101500006DBE374B1A8822F004039BB2022B05D024
:10151000122B03D0822A01D003250BE0DC20344BB0
:1015200098472F4BD978304B9847010220462F4BD4
:10153000984705462A4B1B88403B9BB2022B00F282
:101540004D8668202A4B9847254BD978264B9847DB
:1015500001022046254B9847054600F03FBE204B30
:101560001A8822F004039BB2022B06D0122B04D05F
:10157000822A02D0032500F031BEC021B020194BD1
:101580009847002816DB164B5A7A6FF3C3025A723B
:101590000125134B1B88822B18BF8009104FF97847
:1015A000114EB047B978B04701462046114B9847D5
:1015B00000F014BE40420A4A537A43F008035372C3
:1015C0000225E6E7064B1A8822F004039BB2022BA1
:1015D00012D0122B10D0822A0ED0032524E000BF97
:1015E000D0040020110C0001490C00017D0C000109
:1015F000ED070001590D0001C121B120A04B984712
:101600000028BABF4042022501259E4B1B88822B31
:1016100018BF000A9B4FF9789B4EB047B978B04786
:1016200001462046994B9847964B1B88403B9BB2FE
:10163000022B00F2D3854A20954B984710F4004FB7
:1016400015D040428F4A537A43F008035372022563
:101650008C4FF9788F4B03EA00208B4EB047B97856
:10166000B04701462046894B984700F0B7BD854BEF
:101670005A7A6FF3C3025A720125E9E7814B1A883F
:1016800022F004039BB2022B06D0122B04D0822A34
:1016900002D0032500F0A2BDC221B220784B9847AA
:1016A0000028BABF404202250125764B1B88822BB9
:1016B00018BF000A734FF978734EB047B978B04736
:1016C00001462046714B984700F088BD6D4B1B8842
:1016D000403B9BB2022B02D9032500F07FBD6A205C
:1016E0006B4B984710F4004F1ABF4042022501256A
:1016F000644FF978674B03EA0020634EB047B9782E
:10170000B04701462046614B984700F067BD5D4BEE
:101710001A8822F004039BB2022B06D0122B04D0AD
:10172000822A02D0032500F059BDC321B320544BB7
:1017300098470028BABF404202250125514B1B881B
:10174000822B18BF000A4F4FF9784F4EB047B97837
:10175000B047014620464D4B984700F03FBD494BEE
:101760001A8822F004039BB2022B06D0122B04D05D
:10177000822A02D0032500F031BDC421B420404BA1
:101780009847002816DB3F4B5A7A6FF3C7125A72FC
:1017900001253C4B1B88822B18BF8009394FF978F3
:1017A000394EB047B978B04701462046374B984785
:1017B00000F014BD4042334A537A43F08003537221
:1017C0000225E6E72F4B1A8822F004039BB2022B76
:1017D00005D0122B03D0822A01D0032517E0C521A2
:1017E000B520274B98470028BABF40420225012563
:1017F000244B1B88822B18BF000A224FF978224EF7
:10180000B047B978B04701462046204B98471D4B5A
:101810001B88403B9BB2022B00F2E0844B201C4B08
:10182000984710F4004F15D0C043164A537A43F03E
:10183000800353720225134FF978164B03EA0020F8
:10184000114EB047B978B047014620460F4B984734
:1018500000F0C4BC0B4B5A7A6FF3C7125A720125C1
:10186000E9E7084B1A8822F004039BB2022B13D03D
:10187000122B11D0822A0FD0032500F0AFBC00BF7D
:10188000110C0001D0040020490C0001590D000189
:10189000ED07000100FF7F00C621B620A64B984748
:1018A0000028BABF404202250125A44B1B88822B89
:1018B00018BF000AA14FF978A14EB047B978B047D8
:1018C000014620469F4B984700F088BC9B4B1B88E5
:1018D000403B9BB2022B02D9032500F07FBC6B205A
:1018E000994B984710F4004F1ABF4042022501253A
:1018F000924FF978954B03EA0020914EB047B978A2
:10190000B047014620468F4B984700F067BC8B4B91
:101910001A8822F004039BB2022B06D0122B04D0AB
:10192000822A02D0032500F059BCC721B720824B80
:1019300098470028BABF4042022501257F4B1B88EB
:10194000822B18BF000A7D4FF9787D4EB047B978D9
:10195000B047014620467B4B984700F03FBC774B91
:101960001A8822F004039BB2022B06D0122B04D05B
:10197000822A02D0032500F031BCC821B8206E4B6A
:1019800098470028BABF4042022501256B4B1B88AF
:10199000822B18BF8009694FF978694EB047B97832
:1019A000B04701462046674B984700F017BC634B91
:1019B0001B8823F010039BB2062B02D0032500F0F6
:1019C0000DBC992198205C4B98470028BABF404233
:1019D00002250125594FF978800B594EB047B97847
:1019E000B0475B4AA2FB0032520E5A4B03FB120275
:1019F000594BA3FB0212910DA3FB0032920D574BE2
:101A000003FB120203F1854303F1031303F5904333
:101A1000A3FB0262920C42EA0112A3FB00139B0C8F
:101A20004F4901FB13035B094E4EA6FB0313DB0971
:101A300043EA02134109A6FB0121C9094A4A02FBF4
:101A400011014A4AA2FB0161490B41EA0311A2FBC1
:101A50000032520B42F2107303FB1202444BA3FB01
:101A60000262920942EA0111A3FB003292094FF48B
:101A70007A7303FB12023F4BA3FB0262520942EA54
:101A80000112A3FB00135B09642101FB13033A4914
:101A9000A1FB0363DB0843EA0212A1FB0013DB088E
:101AA00003EB8303A0EB430343EA0213236095E3B4
:101AB000224B1A8822F004039BB2022B05D0122B72
:101AC00003D0822A01D0032517E0C921B9201A4B7F
:101AD00098470028BABF404202250125174B1B88B2
:101AE000822B18BF000A154FF978154EB047B97808
:101AF000B04701462046134B9847104B1B88403B8C
:101B00009BB2022B00F26A834F200F4B984710F4D0
:101B1000004F1ABF404202250125084FF9780B4BB0
:101B200003EA0020064EB047B978B0470146204688
:101B3000044B984752E300BF110C0001D004002071
:101B4000490C0001590D0001ED07000100FF7F0065
:101B5000893BE65500E1F5056BCA5F6B80969800FE
:101B600040420F00C55A7C0AA08601005917B7D120
:101B7000D34D62101F85EB51CDCCCCCC954B1A8840
:101B800022F004039BB2022B05D0122B03D0822A31
:101B900001D0032522E3CA21BA208F4B98470028A1
:101BA000BABF4042022501258A4B1B88822B18BFF1
:101BB000000A884FF978894EB047B978B047014696
:101BC0002046874B984709E3824B1B88403B9BB2DA
:101BD000022B01D9032501E36F20824B984710F4B3
:101BE000004F1ABF4042022501257A4FF9787E4BFB
:101BF00003EA0020794EB047B978B0470146204645
:101C0000774B9847EAE2734B1A8822F004039BB2A1
:101C1000022B05D0122B03D0822A01D00325DDE24E
:101C2000CB21BB206C4B98470028BABF404202250D
:101C30000125684B1B88822B18BF000A654FF97875
:101C4000664EB047B978B04701462046644B984786
:101C5000C4E2604B1A8822F004039BB2022B05D029
:101C6000122B03D0822A01D00325B7E2BC205D4BA2
:101C7000984710F4004F1ABF404202250125C0F3D7
:101C80000E012046594B9847A8E2524B1A8822F081
:101C900004039BB2022B05D0122B03D0822A01D061
:101CA00003250DE0BD204F4B984710F4004F1ABF9D
:101CB000404202250125C0F30E0120464B4B9847B8
:101CC000444B1B88403B9BB2022B00F287824D2085
:101CD000444B984710F4004F1ABF4042022501259B
:101CE000C0F30E012046414B984777E2394B1A88E2
:101CF00022F004039BB2022B05D0122B03D0822AC0
:101D000001D003256AE2BE20364B984710F4004FFD
:101D10001ABF404202250125C0F30E012046334B75
:101D200098475BE22B4B1B88403B9BB2022B01D9AF
:101D3000032553E26D202B4B984710F4004F1ABF38
:101D4000404202250125C0F30E012046274B98474B
:101D500044E2204B1A8822F004039BB2022B05D0E8
:101D6000122B03D0822A01D0032537E2BF201D4B5E
:101D7000984710F4004F1ABF404202250125C0F3D6
:101D80000E012046194B984728E2124B1A8822F080
:101D900004039BB2022B05D0122B03D0822A01D060
:101DA000032507E0F8200F4B984701462046104BCB
:101DB00098470125074B1B88403B9BB2022B00F242
:101DC0000D824C20074B984701462046084B984708
:101DD000012503E2D0040020110C0001490C000190
:101DE000590D0001ED07000100FF7F004D0F0001BC
:101DF000C50F00019B4B1A8822F004039BB2022BF3
:101E000005D0122B03D0822A01D003250DE0F92042
:101E1000954B984710F4004F1ABF40420225012508
:101E2000C0F30E012046914B98478E4B1B88403BD8
:101E30009BB2022B00F2D2814E208B4B984710F4BC
:101E4000004F1ABF404202250125C0F30E01204673
:101E5000864B9847C2E1834B1A8822F004039BB259
:101E6000022B05D0122B03D0822A01D00325B5E125
:101E7000FA207D4B984710F4004F1ABF40420225CC
:101E80000125C0F30E012046784B9847A6E1754B1B
:101E90001B88403B9BB2022B01D903259EE16E209B
:101EA000714B984710F4004F1ABF4042022501259C
:101EB000C0F30E0120466D4B98478FE1694B1A889D
:101EC00022F004039BB2022B05D0122B03D0822AEE
:101ED00001D0032582E1FB20634B984710F4004FAB
:101EE0001ABF404202250125C0F30E0120465F4B78
:101EF000984773E15B4B1A8822F004039BB2022BD4
:101F000005D0122B03D0822A01D0032566E1FC20E4
:101F1000554B984710F4004F1ABF40420225012547
:101F2000C0F30E012046514B984757E14D4B1A889C
:101F300022F004039BB2022B05D0122B03D0822A7D
:101F400001D003254AE1FD20474B984710F4004F8C
:101F50001ABF404202250125C0F30E012046434B23
:101F600098473BE13F4B1A8822F004039BB2022BB7
:101F700005D0122B03D0822A01D003252EE1FE20AA
:101F8000394B984710F4004F1ABF404202250125F3
:101F9000C0F30E012046354B98471FE1314B1A889C
:101FA00022F004039BB2022B05D0122B03D0822A0D
:101FB00001D0032512E1FF202B4B984710F4004F6E
:101FC0001ABF404202250125C0F30E012046274BCF
:101FD000984703E1234B1B8823F004039BB2022B99
:101FE00003D0122B01D00325F8E0F1201E4B9847B7
:101FF000014620461E4B98470546EFE0194B1B88CB
:1020000023F004039BB2022B03D0122B01D0032533
:10201000E4E0F220144B984701462046144B9847C1
:102020000546DBE00F4B1B8823F004039BB2022B19
:1020300003D0122B01D00325D0E0F3200A4B9847A0
:10204000014620460A4B98470546C7E0054B1B88CA
:1020500023F004039BB2022B0CD0122B0AD00325D1
:10206000BCE000BFD0040020ED0700013D110001DD
:1020700039100001F5209C4B9847014620469B4BA8
:1020800098470546AAE09A4B1B8823F004039BB2AD
:10209000022B03D0122B01D003259FE0F620924B98
:1020A000984701462046914B9847054696E0904B4D
:1020B0001B8823F004039BB2022B03D0122B01D008
:1020C00003258BE0F720884B984701462046874B35
:1020D0009847054682E0864B1B88822B18BF032554
:1020E0007CD1F120804B9847002201462046814B4D
:1020F0009847054672E07E4B1B88822B18BF03254C
:102100006CD1F320784B9847012201462046794B49
:102110009847054662E0764B1B88822B18BF032543
:102120005CD1F520704B9847022201462046714B46
:102130009847054652E06E4B1B88822B18BF03253B
:102140004CD1F220684B9847042201462046694B47
:102150009847054642E0664B1B88822B18BF032533
:102160003CD1F420604B9847052201462046614B44
:102170009847054632E05E4B1B88822B18BF03252B
:102180002CD1F620584B9847062201462046594B41
:102190009847054622E0564B1A88A2F140039BB2AD
:1021A000022B01D8032519E0822A01D1032519E069
:1021B00030204D4B984780B2206001250EE04C4BFB
:1021C0001A88A2F140039BB2022B0DD9822A0FD0AC
:1021D0004020454B984780B220600125444B1B8826
:1021E00003B923602846F8BD20203F4B9847F2E70B
:1021F0000020F0E73E4B1A88A2F140039BB2022B6D
:1022000001D80325EAE7822A01D10325EAE7502015
:10221000354B984780B220600125DFE7344B1A88A0
:10222000A2F140039BB2022B08D9822A0AD0602077
:102230002D4B984780B220600125CFE730202A4BF4
:102240009847F7E70020F5E7294B1A88A2F14003E9
:102250009BB2022B08D9822A0CBF71200120224B8D
:10226000984720600125B9E701201F4B984720605F
:102270000125B3E71E4B1B88822B05D0403B9BB248
:10228000022B07D80125A9E77220174B9847206039
:102290000125A3E70220144B9847206001259DE704
:1022A000134B1A88A2F140039BB2022B08D9822A51
:1022B0000CBF752003200C4B9847206001258DE74B
:1022C0000220094B9847F8E7094B1A88A2F140030E
:1022D0009BB2022B12D9822A0CBF76200420024B1B
:1022E00098472060012579E7ED07000139100001CA
:1022F000D0040020B511000103256FE701256DE72B
:102300002DE9F04F85B04E4A1379012161F30203A4
:1023100061F3C5031371938861F3881393801B0ADB
:1023200061F3420361F3C40361F346135371002365
:10233000938153811388403B9BB2022B4FF00202E2
:10234000404994BF4FF444604FF41C603E4B9847A3
:102350003B4B9B78082B02D90422394B9A70384B9F
:10236000DB78082B02D90522354BDA70374B03F5A1
:102370009871002243F8042F9942FBD1304B1A8800
:10238000A2F140039BB2022B1DD8DFF8D48008F1E4
:10239000A80ADFF8B4902E4F0E226946B8F8040060
:1023A000C8476C460DF10E06454669882046B84779
:1023B00006350234B442F8D108F12A08D045EBD1F1
:1023C00005B0BDE8F08F822A06D0224E06F54C7B80
:1023D000B246DFF87C800EE0AA238DF8003055234A
:1023E0008DF801307F216846194B9847EDE70AF1D7
:1023F000300AD34511D010226946BAF80400164BB2
:102400009847E94604AF6C46554669882046C04760
:1024100006350234BC42F8D1E9E70C22694641F2A4
:1024200014000D4B98470D4D094CB6F83213484631
:10243000A047063609F10209AE42F6D1C0E700BF57
:10244000D0040020D2040020D1600001EC04002060
:10245000450B00013C850001A95D0001608500017C
:1024600094840001024A13780133DBB21370704781
:102470002006002010B5724C002323707148724B67
:10248000984763780133DBB2632B1AD863706F4BC4
:102490005B893BB1013B9BB26C4A538113B901226A
:1024A0006A4B9A816A4B5B7A7BB1013BDBB2684A2B
:1024B00053728BB99378082B0ED10820654B98473F
:1024C0000AE000225E4B5A70E1E7614A137A013359
:1024D000DBB213723B2B11D85D4B93F8E1308BB11B
:1024E000013BDBB25A4A82F8E130ABB992F8DA30FC
:1024F000082B11D10A20574B98470DE00020564B6E
:102500009847E9E7524B93F8E0300133DBB23B2BBD
:1025100014D84F4A82F8E0304D4B93F8B93193B15B
:10252000013BDBB24A4A82F8B931B3B992F8B23111
:10253000082B12D10E20474B98470EE00022444B47
:1025400083F8E020E8E7424B93F8B8310133DBB27F
:102550003B2B1BD83E4A82F8B831404B5B78552B59
:102560001CD03E4B1B78552B26D0354B5B78013366
:10257000DBB2632B2ED8324A5370314B9B78013338
:10258000DBB2C72B47D82E4A937010BD0022304BC8
:1025900083F8B8210320324B9847DEE700222F4B07
:1025A0005A70304B1A7842F005021A700A229A705B
:1025B0000520284B9847D4E70022284B1A70294B56
:1025C0001A7842F050021A700A229A700520214BA4
:1025D0009847CAE700221A4B5A7001201D4CA047A9
:1025E0001120A0471F4A9378013BDBB2937073B967
:1025F0000A221C4B9A700520A047154B93F86033B4
:10260000002BBAD0013B124A82F86033B5E70420B0
:10261000104B9847F1E70A4C0023A37002200D4BA2
:102620009847E3780133DBB23B2B01D8E37010BD50
:102630000022034BDA701020064B984710BD00BFF4
:102640002006002050140E40D5790001D00400204F
:1026500024060020BD670001792B0001080A002034
:10266000092A0001A809002030B583B0264B9847FD
:10267000264C0E2221469020254DA8470622A11F58
:102680002046244B984705226946A220A8472248A5
:102690009DF80430C3709DF803109DF8022042EAB3
:1026A00001229DF8013043EA02229DF8003043EAFE
:1026B00002235B0043F00103436011F0800F07BF6A
:1026C000C2220346C322144B9A60144B1B88403B22
:1026D0009BB2022B4FF00202114994BF4FF44460A9
:1026E0004FF41C600A4B98470C4B9B78082B02D97F
:1026F00004220A4B9A70094BDB78082B02D9052279
:10270000064BDA7003B030BD4D6500018B09002027
:10271000D16000016D600001A8090020D0040020F4
:10272000D204002070B586B005460C46554B98473C
:1027300006460DF117012846534B9847A278D31F40
:10274000DBB2012B53D916F0010F50D02378012BA7
:102750004DD1082A7CD04D48844214BF072009205F
:1027600000232372022A47D010D8FAB1012A30D1AF
:102770009DF81730FE2B3CD0682B2AD1A370042380
:10278000A372237B43F00103237340E0052A4DD05D
:10279000682A1ED1A37A0B2B1BD19DF81730682B0A
:1027A0003DD00023A3702373A37230E00123A370F4
:1027B0000023A3722373364A00920193029303937A
:1027C0000493009B01936368029301A92846314B4F
:1027D0009847A37AE2189DF8171051730133DBB2C2
:1027E000A372C72B03D90023A3702373A37206B06F
:1027F00070BD0223A370ECE79DF81730682BE8D179
:10280000A3700423A372237B43F001032373A37AF1
:10281000E2189DF8171051730133A372E7E70523FF
:10282000A370237B43F002032373F0E79DF8173076
:10283000162BCED1A27AA37E0F339A42C9DB07238F
:10284000A370237B43F004032373134B9847C0E723
:1028500016F0020FCBD0E37A13B1A37AC72B04D9B9
:102860000023A3702373A372C1E70133DBB2A37209
:102870002344597B2846094B9847E37A013BE3728E
:10288000B5E700BFB5780001C9780001FC0600205B
:1028900000801A067B78000199670001B978000171
:1028A00008B502490248034B984708BD240600209A
:1028B00000060E402527000108B502490248034BD7
:1028C000984708BDFC06002000400048252700016D
:1028D00038B505460C463D4B9847AD69A278D31FE5
:1028E000DBB2012B35D910F0010F32D02378012B48
:1028F0002FD1082A2DD0EDB200232372022A2CD02A
:102900000FD8E2B1012A2AD1FE2D23D0682D26D17D
:102910006823A3700423A372237B43F00103237372
:1029200012E0052A38D0682A19D1A37A0B2B16D1C8
:10293000682D2AD00023A3702373A37204E001231F
:10294000A3700023A3722373A37AE2185573013393
:10295000A37238BD0223A37001E0682D0CD0A37AC6
:10296000E21855730133DBB2A372C72BF1D90023F0
:10297000A3702373A37238BD6823A3700423A372CA
:10298000237B43F001032373DEE70523A370237B3E
:1029900043F002032373D7E7162DE0D1A27AA37E7A
:1029A0000F339A42DBDB0723A370237B43F004033E
:1029B0002373074B9C4207D0D8339C4208BF0B209F
:1029C000C0B2044B9847CAE70D20F9E7BD79000172
:1029D000D40700209967000108B502490248034B5B
:1029E000984708BDD407002000C00240D12800014C
:1029F00008B502490248034B984708BDAC080020BF
:102A000000000340D128000170B588B005460228B7
:102A10002FD003281DD14B4C01234FF48C424FF093
:102A200000612046484EB047236843F400432360CA
:102A3000636E43F400436366236943F400432361F8
:102A4000636B43F4004363631020404B9847404B53
:102A5000404C414A0792DA78082A65D027D9202AC3
:102A60005AD0402A2BD0102A5AD04FF496525A608E
:102A700028E0344C012319224FF000612046324EE9
:102A8000B047236843F002032360636E43F0020300
:102A90006366236943F002032361636B43F002031F
:102AA00063631120294B98472C4B2D4CD1E7022A08
:102AB0003ED0042AD9D14FF416725A6002E04FF486
:102AC00016525A6001261E7000221A739A72DA7228
:102AD0001A725A729A705B680193C0230293039230
:102AE000049205960692079A01A920461D4B984725
:102AF00020461D4B984720461C4B984731462046A0
:102B00001B4B9847022D17D0032D03D14FF4803271
:102B1000184B1A6008B070BD4FF496525A60D1E756
:102B20004FF416625A60CDE74FF496625A60C9E7D7
:102B30004FF496725A60C5E74FF400320D4B1A609D
:102B4000E8E700BF000E0E40D57200016974000175
:102B5000D407002000C0024000801A06AC08002004
:102B60000000034089790001B3790001AD790001CB
:102B7000B979000100E100E070B586B0044640B1CB
:102B8000012822D0444B0593002874D10022154619
:102B90000DE0002330224FF000614048404DA8472F
:102BA0000820404B98473C4B05933F4A3F4DD37814
:102BB000102B50D01CD8042B55D0082B4FD0022BF3
:102BC00055D04FF4965353601FE0002303224FF07B
:102BD00000613748324DA8472620324B98472E4B8C
:102BE00005933449344A354D4FF4966353600DE0F4
:102BF000402B2CD0802B05D0202BE2D14FF49653C4
:102C0000536002E04FF4E13353600021002313735B
:102C10009372D372137253729370012616700193DC
:102C2000029303930493059B0193536802930391CA
:102C300001A92846224B984731462846214B984700
:102C40001CBB4FF48072204B1A6006B070BD4FF46D
:102C500016535360D9E74FF416635360D5E74FF42A
:102C600096635360D1E74FF416735360CDE74FF48A
:102C700096735360C9E7012803D000210A460D4628
:102C8000C4E700210A460D46AEE7012CDDD1402203
:102C90000D4B5A60D9E700BF00801A0600100E40A5
:102CA000D5720001697400012406002000060E4060
:102CB00000C0004801001300FC060020004000484E
:102CC0007B780001B178000100E100E070B50128D7
:102CD0000BD0022814D03E4BA3F5D874032808BFAC
:102CE0001C46A378082B0DD070BD3A4B5A6842F4AD
:102CF00040225A605A6842F001025A60364CF0E7AE
:102D0000364CEEE7E37A002BEED0A37AC72BEBD854
:102D1000032812D8DFE800F0021A402A5A1CA272D7
:102D20002344597B2E482F4B98472D4E2E4D30462D
:102D3000A84710F0020FFAD00821E37A013BDBB27A
:102D4000E372002B3ED139232372CDE75A1CA272C5
:102D50002344597B1F48234B98471E4E224D304633
:102D6000A84710F0020FFAD00A21E6E71F4A136BBA
:102D700043F400431363A37A5A1CA2722344597B81
:102D80001B481C4B98471A4E1B4D3046A84710F065
:102D9000020FFAD00E21D0E7144A136B43F002035E
:102DA0001363A37A5A1CA2722344597B1348114B14
:102DB0009847124E104D3046A84710F0020FFAD037
:102DC0000C21BAE708460E4B98470023237270BDCA
:102DD000D407002000400048FC060020AC0800207A
:102DE00000060E40B9780001B5780001000E0E40D3
:102DF00000C00240C1790001BD790001000003401C
:102E0000BD6700010A4639B103460844002213F8A1
:102E1000011B4A408342FAD11046704701780329CA
:102E20000AD00346C73013F8012F032A02D05140BD
:102E30009842F8D1084670470021FBE72DE9F04F92
:102E4000A3B00546012825D0022825D0554BA3F56F
:102E5000D874032808BF1C462378012B1ED00023FA
:102E6000A3706378132B49D8DFE813F0CA09D4099B
:102E7000E209280A360A660A730A810A8F0A9D0A3D
:102E8000AB0AD90AE70AF50A030B110B1F0B450B16
:102E9000530B6D0B444CDFE7444CDDE74022444BC1
:102EA0001A70A07C992841F0838304F1130304F184
:102EB000180113F8012B992A41F08E838B42F8D127
:102EC000237B43F020032373A77E04F11003BE4647
:102ED00007F11A002044002213F8011F0A44984207
:102EE000FAD10EF10A03D2B223445B7C9A4208D095
:102EF0002846304B984700222D4B1A7023B0BDE86E
:102F0000F08F60222A4B1A7057B104F11A01002287
:102F10004B78333B01F8013F0132A77E9742F7D847
:102F2000A37F94F81D8048EA0328217F41EA0828FE
:102F3000E37E43EA0828627E013A2E2A01F2C0802D
:102F4000DFE812F03A00BE08BE08F302BE08BE0871
:102F5000BE089307BE08F505BE080906BE08BE08F0
:102F6000BE08BE082506BE08E006EC066007BE08DF
:102F7000BE08BE08BE088207BE08BE08BE08BE085E
:102F8000BE08BE08BE08BE08BE08BE08BE08BE0811
:102F9000BE08BE08BE08BE08BE08BE08BE080908B6
:102FA000A60800BFD4070020FC060020AC080020C3
:102FB000B4090020792B0001C02900F08F8001277F
:102FC0000826237FC22B00F0BE8003F13002D2B26C
:102FD000022A00F2E1809F4A1288A2F1400189B2E0
:102FE000022902D8D02B00F2C987822A02D1D02B25
:102FF00000F0DE80C8F30B0104F11D00964B9847EA
:1030000013270426237FE02B40F0A180E37E102BC2
:1030100000F0D880302B00F0E280502B00F0EC80E4
:10302000702B00F00D8183F080024A2A0DD8773B87
:10303000884A52F8233063771A0AA2771A0CE2778B
:103040001B0E84F82030132706260022834B1A70AB
:103050007B1E3F2B00F21F87DFE813F0E606E60633
:103060001D07E6061D071D071D07E6061D071D07B0
:103070001D071D071D071D071D07E606EE051D0799
:10308000EF05040704071D071D071D0704070407B4
:103090001D071D071D071D071D07E6061D071D0748
:1030A0001D071D071D071D071D071D071D071D0700
:1030B0001D071D071D07EE0504071D071D071D073A
:1030C0001D071D071D071D071D071D071D071D07E0
:1030D0001D071D071D071D071D07E606322B09D01A
:1030E0000127E37E112B10D00826E37E102B18D089
:1030F000237F6AE7062204F11D015948594B98477E
:10310000237FC02B19D11327EBE7032204F11D0104
:103110005548544B9847237FC02B11D113270526C0
:10312000E3E7524E032204F11E0130464D4B98470F
:10313000F37863771327062643E71327082640E72B
:10314000132705263DE7E37E012B0BD0237FF02BD1
:1031500040F014873F4B9B89012B00F08F800127A3
:1031600000F05FBE424A536859086177590AA17757
:10317000590CE1775B0E84F82030926812F0010F51
:103180001CBF63F07F0384F82030394BDB7884F870
:10319000213013270726D9E7D82B7FF433AF2D4AE8
:1031A0001288A2F1400189B2022940F2E7861CE7A9
:1031B000E37E5033DBB21B2B3FF61CAF0322254BC3
:1031C0001A8217E7234A1188A1F1400292B2022A1B
:1031D0009ABF4022627761771327032620E71D4AB2
:1031E0001288403A92B2022A7FF61DAF194AD2885D
:1031F00062771327032616E7002363771D4BDB6BEB
:1032000013F0805F1CBF02236377124B1B88403B87
:103210009BB2022B08D9184BDB6B13F0800F03D045
:10322000637F43F004036377124BDB6B13F0005FA3
:1032300003D0637F43F0010363771327032604E77A
:10324000044B9A786277DB78A3771327042600F083
:1032500095BE00BFD0040020290B0001B409002056
:10326000850900206D6000010C0A00200F0A002073
:10327000A8090020000E0E4000100E40E07EFF3036
:10328000C44FB847C44EC6F808016077030AA37755
:10329000030CE377000E84F8200040F21F10B847BB
:1032A000C6F80C0184F82100030A84F82230030CCC
:1032B00084F82330000E84F82400E07E00F21F1012
:1032C000B847C6F8100184F82500030A84F82630B0
:1032D000030C84F82730000E84F8280040F23F10D9
:1032E000B847C6F8140184F82900030A84F82A3084
:1032F000030C84F82B30000E84F82C00E07E00F2E2
:103300003F10B847C6F8180184F82D00030A84F866
:103310002E30030C84F82F30000E84F8300040F279
:103320005F10B847C6F81C0184F83100030A84F81E
:103330003230030C84F83330000E84F83400E07E21
:1033400000F25F10B847C6F8200184F83500030A80
:1033500084F83630030C84F83730000E84F83800D7
:1033600040F27F10B847C6F8240184F83900030AF8
:1033700084F83A30030C84F83B30000E84F83C00AB
:10338000E07E00F27F10B847C6F8280184F83D00BF
:10339000030A84F83E30030C84F83F30000E84F8B2
:1033A000400040F29F10B847C6F82C0184F8410055
:1033B000030A84F84230030C84F84330000E84F88A
:1033C0004400E07E00F29F10B847C6F8300184F850
:1033D0004500030A84F84630030C84F84730000E99
:1033E00084F8480040F2BF10B847C6F8340184F8AA
:1033F0004900030A84F84A30030C84F84B30000E6D
:1034000084F84C00317901F007014FF47A7A0AFA16
:1034100001F189B24FF4E070DFF88C81C0475F4F53
:10342000B847C6F8380184F84D00030A84F84E30D6
:10343000030C84F84F30000E84F850007179C1F30A
:1034400041014FF0640909FA01F189B240F2C1105B
:10345000C047B847C6F83C0184F85100030A84F815
:103460005230030C84F85330000E84F85400317944
:10347000C1F3C2010AFA01F189B24FF4E170C04709
:10348000B847C6F8400184F85500030A84F856305E
:10349000030C84F85730000E84F858007179C1F39A
:1034A000C10109FA01F189B240F2C310C047B8471F
:1034B000C6F8440184F85900030A84F85A30030C12
:1034C00084F85B30000E84F85C00B188C1F382118F
:1034D0000AFA01F189B24FF4E270C047B847C6F862
:1034E000480184F85D00030A84F85E30030C84F818
:1034F0005F30000E84F860007179C1F3411109FA60
:1035000001F189B240F2C510C047B847C6F84C0176
:1035100084F86100030A84F86230030C84F8633095
:10352000000E84F864004A26F3E3A0290AD0E26979
:1035300022F07F4222F0FF021948824224D0022763
:1035400000F06FBCE26922F07F4222F0FF02B2F588
:103550004C1F02D0022700F064BCE27F332A41F006
:10356000CF8094F82020332A41F0CD80512B00F0F9
:10357000BA80A12B00F01281502B6BD00022094B96
:103580001A70012700F050BCE27F112A0ED00227EA
:1035900000F047BC81120001D0040020D57F00015B
:1035A00000011100B40900209512000194F82020B8
:1035B000112A41F0AB80A039402901F24280DFE8B6
:1035C00011F0410040084008400840084008400809
:1035D00040084008400840084008400840084008AB
:1035E000400840084008400840084008400840089B
:1035F000400840084008400840084008400840088B
:103600004008F10040014F014008400840084008D0
:10361000400840084008400840084008400840086A
:1036200040087B01EE01EE014008400840084008D8
:103630004008EE01400840084008400840084008A3
:1036400040080E02512B4ED0A12B00F0A780502B2A
:1036500040F0C285B94B1B88403B9BB2032B35BF62
:10366000042712274FF440684FF4706840F20111AC
:1036700002914FF06802B24B1A704FF0020234BF51
:103680004FF444604FF41C60AE4B9847002841F063
:1036900040806822AA4B1A7001AB11A9002243F89E
:1036A000042F9942FBD1A7B100264FF00E0BDFF893
:1036B00094A2DFF88C921FFA88F05A460299D047FC
:1036C00060B94FEA0818682389F800300136B7421C
:1036D000F1D100229A4B1A701427C3E3B74241F28A
:1036E000398001279DE36822954B1A70934B1B8804
:1036F000403B9BB2022B31D9934E06F54C7B3746AB
:103700000DF10808C146BA46BAF8021048468F4B78
:1037100098470AF1060A09F1020906AB9945F3D167
:1037200010220299B8888A4B98473037BB45E7D1B9
:103730000027DFF81892B6F832134046C847013721
:10374000063608F10208062FF5D10C2202997E4BAD
:10375000B3F834037E4B9847142780E37D4E06F17F
:10376000A80ADFF8DC9102AF0DF1160BB046B8F8ED
:1037700002103846754B984708F1060802375F4536
:10378000F5D10E220299B0886E4B9847682389F8CC
:1037900000302A36B245E6D1142760E36E4B9847D5
:1037A00014275CE3112B40F0DB8794F821006B4F6A
:1037B000B84784F8210094F82200B84784F8220022
:1037C00094F82300B847014684F8230094F8213088
:1037D00094F822206248634FB8470120624B984713
:1037E000E37E102B40F0C68794F821005B4B98478E
:1037F00084F8210010B9072384F8213094F82200BE
:10380000564FB84784F8220094F82300B84784F84C
:10381000230094F82400B847014684F8240094F863
:10382000223094F8232094F8210000904C484F4F08
:10383000B847002814BF0227142701204A4B984795
:103840009CE3192B40F0688768223D4B1A70484B67
:103850009847484B21225A700A229A701427FEE298
:10386000012B40F05C876822354B1A7094F82410C5
:10387000404894F8232042EA012294F8223043EA97
:10388000022294F8213043EA02235B0043F0010353
:103890004360C223836011F0800F01D0C322826095
:1038A00094F82520334BDA70052204F12101A2207F
:1038B000244B98471427D2E26822214B1A701F4BE1
:1038C0001B88403B9BB2022B1FD91FFA88F11E4B6D
:1038D0001B888B4252D1002604F12107DFF8688053
:1038E0004FEA460909EB060308EB43030222394677
:1038F0009888174B98474E4408EB4608B8F80210D2
:1039000038461D4B98471427A9E21FFA88F1114B3E
:103910001B888B4200F09B860E4B0126DA888A4278
:1039200000F09686013606331C2EF7D1C9B204F199
:103930002100114B9847142791E200BFD0040020CA
:10394000B4090020716100013C850001290B0001D0
:10395000215F000194840001012300010569000139
:1039600060140E402D750001BD6700013576000121
:10397000E9650001A8090020450B0001984B0126CC
:10398000DA888A42A8D0013606338E2EF8D1C1F3E8
:103990000B0104F12100934B984714275FE2924BEF
:1039A0001B88403B9BB2022B40F2BC861FFA88F179
:1039B0008B4B1B888B4200F06586894B0126DA8889
:1039C0008A4200F06086013606338E2EF7D1C1F3AD
:1039D0000B0104F12100834B984714273FE2302B61
:1039E0000ED0702B00F08780202B40F0F7837E4BA9
:1039F0005B89002B40F09C867C4B984714272EE275
:103A0000794B1B88403B9BB2022B40F28E8694F888
:103A10002130754AD380012B0ED043B1022B27D021
:103A20000320734B9847734B9847142717E20020E5
:103A30006F4B9847142712E201206D4B9847684E50
:103A400006F5557A42F6F079DFF8CC81654F338878
:103A50004B449BB2032B06D8022202A9B088C04770
:103A6000718802A8B8470636B245F0D11427F6E1AE
:103A700002205F4B98471427DFF86CA1DFF898917C
:103A8000BAF80030822B01D11D2F19D0544E06F503
:103A9000557BB6F80280B84507D1022202A9B0884A
:103AA000C847414602A84F4B984706365E45F0D1BD
:103AB00001371E2FE4D14C4B1B88822B40F04D86E2
:103AC0002027DFF854A1DFF81C91454E06F5557B01
:103AD000B6F80280B84506D1022202A9B088D047C4
:103AE000414602A8C8470636B345F1D10137302F09
:103AF000EBD11427B3E168223F4B1A703A4B1B8875
:103B0000403B9BB2022B4FF0020204F121018CBF1B
:103B10004FF41C604FF44460384B9847324B94F894
:103B20002220DA7094F821209A70142797E16822F5
:103B3000314B1A7004F11B060622314690202F4BA0
:103B4000984708B102276CE106222D4930462D4BDB
:103B50009847152783E1002D00F0AF85032D12D182
:103B6000102B00F0BF8540F2C185402B00F0BA85D4
:103B7000802B40F0C285FF23E3760126C9E0802335
:103B8000E3700126C5E0FF23E3760126C1E01E4B6A
:103B9000984500F099800FD8A3F5407398453DD023
:103BA0000133984540F01C83032204F11F0117489C
:103BB000144B984703263BE0154B984500F08C804A
:103BC00003F57543984540F00B830C2204F11F0167
:103BD0002020104B9847002800F08980022720E120
:103BE0003C850001450B0001D0040020E50B0001DD
:103BF0003502000101230001B409002071610001B8
:103C0000850900206D600001010400040C0A0020F9
:103C1000010B0004D1600001A95D0001A24E032246
:103C200004F120013046A14B9847F378E37704264E
:103C300000229F4B1A7011270436A676802F00F0C1
:103C40002A81637E63F07F036376A37E53B104F120
:103C50001A0100224B78333301F8013F0132A37E71
:103C60009342F7D8FE236373A373E3732374682529
:103C70006574062204F112018E488C4B9847257614
:103C8000A57E04F1100305F11A002044002213F868
:103C9000011F0A448342FAD105F10A0323445A74EE
:103CA00016229A74A37E0822A27022730222A272A4
:103CB0000E33E372012363720023237214227E4BBE
:103CC00083F86023FFF71AB9062204F11F0179482F
:103CD000764B98470626ABE7022204F11F01A0208D
:103CE000764B9847002840F026850226A0E70C2254
:103CF00004F12B013020724B9847002840F01E85BC
:103D0000182695E7062204F11B016A48674B98477D
:103D100006260022664B1A7013278EE7694B9845DA
:103D200038D014D9684B98454DD003F57543984564
:103D300040F0588268225E4B1A700C2204F1270171
:103D400020205F4B984700284ED0022769E0013BB6
:103D5000984540F0478294F82A005C4EB0470746E9
:103D600094F82900B047804694F82800B04781466F
:103D700094F82700B04700904B46424607F5FA6199
:103D80005348544EB047544B27225A700A229A7017
:103D9000142764E094F829004C4EB047074694F885
:103DA0002800B047804694F82700B04703464246B3
:103DB00039464748494EB047474B26225A700A2297
:103DC0009A7014274BE06822394B1A70022204F1D2
:103DD0002701A0203A4B984708B1022721E00F2085
:103DE0003F4B984714273AE06822314B1A700C2257
:103DF00004F133013020324B9847002840F0A18471
:103E000014272CE068222A4B1A7000BF04F11B060D
:103E10000622314690202A4B984768B100BF00BF68
:103E200002270022224B1A700123A376E776637ED5
:103E300043F04003637601E700BF06221D49304688
:103E40001A4B984715270AE06822194B1A70254B20
:103E50009847214B21225A700A229A701A27002271
:103E6000134B1A700023A376E8E6032202A904F19B
:103E70001B000E4EB047032203A904F11E00B047F9
:103E8000029B23F07F43029302A8174B984768B325
:103E90000022074B1A70032D3FF630A8DFE815F01B
:103EA000A601A601AB01AB010F0A00206D60000165
:103EB000B40900208509002024060020D1600001FB
:103EC0007161000102010004010B00040569000199
:103ED00060140E4035760001A80900202D75000100
:103EE000BD670001E9650001896B000105A8D74B9A
:103EF00098470028CCD19DF80A00D54CA04707462A
:103F00009DF80900A04780469DF80800A047D14EC3
:103F10000346424639463046CF4FB8479DF80E001B
:103F2000A04707469DF80D00A04780469DF80C006D
:103F3000A04781469DF80B00A04700904B464246A3
:103F400007F5FA613046C54CA047C54B26225A708A
:103F50000A229A709CE7042F9AD11FFA88F104F183
:103F60001F00C04B98470746002384F8213084F88F
:103F70002230637F422B14BF042608260022BA4B4E
:103F80001A707B1E3F2B86D801A252F823F000BF87
:103F9000293E0001293E0001973E0001293E000113
:103FA000973E0001973E0001973E0001293E000127
:103FB000973E0001973E0001973E0001973E0001A9
:103FC000973E0001973E0001973E0001293E000107
:103FD000393C0001973E00013B3C0001653E000179
:103FE000653E0001973E0001973E0001973E0001AB
:103FF000653E0001653E0001973E0001973E0001CD
:10400000973E0001973E0001973E0001293E0001C6
:10401000973E0001973E0001973E0001973E000148
:10402000973E0001973E0001973E0001973E000138
:10403000973E0001973E0001973E0001973E000128
:10404000973E0001393C0001653E0001973E0001AA
:10405000973E0001973E0001973E0001973E000108
:10406000973E0001973E0001973E0001973E0001F8
:10407000973E0001973E0001973E0001973E0001E8
:10408000973E0001973E0001973E0001293E000146
:104090006822754B1A70E37F002B40F05583238C08
:1040A000002B40F0548394F822300BB10427B8E67B
:1040B0001FFA88F104F127006C4B984707465DE72B
:1040C00080270022684B1A707B1E3F2B00F28C80E9
:1040D00001A252F823F000BF293E0001293E000151
:1040E000E9410001293E0001E9410001E9410001E7
:1040F000E9410001293E0001E9410001E9410001D7
:10410000E9410001E9410001E9410001E941000103
:10411000E9410001293E0001393C0001E94100016B
:104120003B3C0001653E0001653E0001E9410001A4
:10413000E9410001E9410001653E0001653E0001E1
:10414000E9410001E9410001E9410001E9410001C3
:10415000E9410001293E0001E9410001E941000176
:10416000E9410001E9410001E9410001E9410001A3
:10417000E9410001E9410001E9410001E941000193
:10418000E9410001E9410001E9410001393C000138
:10419000653E0001E9410001E9410001E9410001FA
:1041A000E9410001E9410001E9410001E941000163
:1041B000E9410001E9410001E9410001E941000153
:1041C000E9410001E9410001E9410001E941000143
:1041D000E9410001293E0001012772E7012770E74C
:1041E00011276EE714276CE7802727E52846204B28
:1041F0009847FEF783BE28461E4B9847FEF77EBEC3
:10420000A37A23441B7B2F2B7EF478AE01236370AB
:10421000FEF774BEA37A23441B7B3F2B04D02846B1
:10422000134B9847FEF76ABE02236370FEF766BE23
:10423000A37AE218127B212A1ED0102B7EF65EAEE6
:1042400028460B4B9847FEF759BE00BFBD6B0001D7
:104250000569000160140E402D75000135760001DE
:10426000A8090020290B0001B4090020450B00011A
:10427000792B0001092A0001032B17D0E17BC44AE6
:1042800092F8672391420CD104F10F02C1490B331C
:10429000234493420AD011F8010B12F8016F8642B1
:1042A000F7D02846BC4B9847FEF728BE032363701F
:1042B000237B43F010032373FEF720BEA37A23442D
:1042C0001B7B0D2B04D02846B34B9847FEF716BE38
:1042D00004236370FEF712BEA37A23441B7B0A2BD0
:1042E00004D02846AC4B9847FEF708BE2F236373D3
:1042F0005A23A3735422E27323742246332302F811
:10430000113FA64B03F10E0013F8011B02F8011F29
:104310008342F9D10D2384F820300A2384F8213018
:104320001523E3720023A3720820A0709C4B9847CA
:1043300005236370FEF7E2BDA37A23441B7B062BA3
:1043400004D02846944B9847FEF7D8BD6370FEF71B
:10435000D5BDA37A23441B7B302B04D028468E4B3B
:104360009847FEF7CBBD07236370FEF7C7BDA37A5E
:1043700023441B7B332B04D02846874B9847FEF7FA
:10438000BDBD08236370FEF7B9BDA37A23441B7B30
:10439000312B04D02846804B9847FEF7AFBD092348
:1043A0006370FEF7ABBDA37A23441B7B0D2B04D0B7
:1043B0002846794B9847FEF7A1BD0A236370FEF7A4
:1043C0009DBDA37A23441B7B0A2B04D02846724B45
:1043D0009847FEF793BD012363735023A3733023E3
:1043E000E37302232374282363745A23A37454228F
:1043F000E2742375292363750323A375092104F14E
:104400000E00684B9847E0750B23E3720022A272FE
:104410000822A270642262726370FEF76FBDA37AF5
:1044200023441B7B012B04D028465B4B9847FEF7A7
:1044300065BD0C236370FEF761BDA37A23441B7B2B
:10444000502B04D02846544B9847FEF757BD0D23F8
:104450006370FEF753BDA37A23441B7B312B04D03A
:1044600028464D4B9847FEF749BD0E236370FEF773
:1044700045BDA37A23441B7B022B04D02846464B20
:104480009847FEF73BBD0F236370FEF737BDA37A55
:1044900023441B7B282B04D028463F4B9847FEF72C
:1044A0002DBD10236370FEF729BDA37AE218127B9D
:1044B000292A07D00D2B7EF621AD2846364B98478A
:1044C000FEF71CBDA27C324B93F875339A427EF402
:1044D00015AD04F11303344A04F11A0113F8015B1A
:1044E00012F8010B85427EF409AD8B42F6D11123FF
:1044F0006370FEF703BDA37A23441B7B032B04D018
:104500002846254B9847FEF7F9BC12236370FEF747
:10451000F5BC04F10E00254B9847A37A23441B7B7E
:1045200083420BD0152363730123E3720023A3722C
:104530000820A0701A4B9847FEF7E0BC062363736F
:1045400013236370F0E704F10E00184B9847A37A29
:1045500023441B7B834207D00023A372237B03F0F9
:1045600070032373FEF7CABCA37B522B3EF4C6AC88
:10457000572B3EF4C3AC422B04D100236370A372CB
:10458000FEF7BCBC2846044B9847FEF7B7BC00BFFB
:10459000240600208C090020792B00018B090020C3
:1045A000BD670001052E00019A0900201D2E0001A3
:1045B000AA2840F0ED8004F1130304F1180113F868
:1045C000012BAA2A40F0DC808B42F8D1237B43F0F8
:1045D00040032373FEF778BC714B93F86133834239
:1045E00012D104F113016F4A012311F8017B12F873
:1045F000010B874209D10133062BF6D1237B43F00F
:1046000010032373FEF760BC0023E218927CAA2AF1
:1046100009D103F1120222440133052B0BD812F801
:10462000011FAA29F8D028465F4B984700225F4B0C
:104630001A70FEF763BC237B43F080032373FEF7FD
:1046400043BC0022594B1A700127FFF7EDBB00262F
:1046500004F12107DFF864814FEA460909EB0603FC
:1046600008EB4303022239469888514B98474E4441
:1046700008EB4608B8F8021038464E4B9847142706
:10468000FFF7EDBB002604F12107DFF834814FEA84
:10469000460909EB060308EB4303022239469888D2
:1046A000454B98474E4408EB4608B8F80210384688
:1046B000404B98471427FFF7D2BB102B12D00AD8D3
:1046C000042B0FD0082B0DD0022B0BD0FF23E37649
:1046D0000126FFF71EBB402B04D0802B3FF44FAACE
:1046E000202BF3D1E3700126FFF713BB042BF9D085
:1046F000082BF7D0022BE9D1F4E7202BE6D1F1E724
:104700000227FFF78EBB0227FFF78BBB0227FFF7BD
:1047100088BB0127FFF785BB0127FFF782BB012775
:10472000FFF77FBB0127FFF77CBB0127FFF779BBB2
:104730000227FFF776BB0227FFF773BB0227FFF7BD
:1047400070BB0227FFF76DBB0427FFF76ABB042786
:10475000FFF767BB1427FFF782BB1427FFF77FBB68
:10476000E37E102B3FF440A80022104B1A70012763
:10477000FFF75ABB00220D4B1A701427FFF772BBCC
:10478000074B93F8613383423FF42BAF002340E79C
:10479000034B93F8613383423FF423AF43E700BFF9
:1047A0002406002086090020792B0001B40900208E
:1047B00071610001450B0001215F0001948400013B
:1047C0003C850001F0B406783D4A00234DE003EB40
:1047D00083023B4B1344DB783A4AD35C1F2B15D939
:1047E00005EB8505364A2A44127937498A5CD2009E
:1047F00002F1804202F57032D2F80412A3F12000D7
:10480000012383400B43C2F8043257E005EB8505D2
:104810002B4A2A4412792C498A5CD20002F1804248
:1048200002F57032D2F80002012101FA03F30343CA
:10483000C2F8003242E005EB8505214B1D442B797F
:104840002149CB5CDB0003F1804303F57033D3F8DF
:104850000012012000FA02F221EA0202C3F800224B
:104860002CE0013305326E2B28D01D461478B4425B
:10487000F7D147785478A742F3D10129A7D003EBA9
:1048800083020F4B1344DB780E4AD25C1F2AD2D925
:1048900005EB85050A4B2B441B790B49CB5CDB00F0
:1048A00003F1804303F57033D3F80412A2F1200022
:1048B0000122824021EA0202C3F80422F0BC7047C0
:1048C0004489000130890001288900012DE9F04167
:1048D0000D4B5C5CC0EBC00040000C4E35180E3038
:1048E00006444FF001080A4F04E06400E4B20235C8
:1048F000B54206D014F0800FF7D041462846B8479D
:10490000F3E7BDE8F08100BF90880001A8880001AE
:10491000C5470001F8B5037883B105460121084B6E
:104920009847AC1C08350127054E23783BB1394622
:104930002046B0470234A542F7D1F8BDF8BDF8BD16
:10494000C547000110B52020274B9847274B9B688F
:1049500013F0300F43D1254C03212046244B9847B8
:1049600030212046234B9847234C0823236063685B
:1049700023F0070343F005036360636823F0080333
:1049800043F4881363601D4B6363402120461C4B36
:104990009847636823F470236360636843F4E023FB
:1049A0006360636823F440136360636843F4001337
:1049B0006360012220212046124B9847E36823F0D0
:1049C0000703E360E368E36020460F4B9847224605
:1049D0001369002BFCD008480C4B984710BD0021F0
:1049E0000248044B9847B6E76974000110140E4062
:1049F000677800012978000100C00340FEFF030032
:104A0000ED76000189770001C5770001CB770001C1
:104A100070B5414B5B78FF2B20D0FE2B24D03F4B51
:104A20001B88403B9BB2022B2BD83B4B59683C4A1E
:104A30000A405A609A6802F0C2029A60364B1B78AC
:104A400013F0500F41D013F0050F10D1324A5568C2
:104A50005378966828220120272423E02E4BFE223B
:104A60005A7002229A7005E000222B4B5A700A22DB
:104A7000294B9A700022284B1A700420294B984722
:104A800070BD254A936803F0C3039360D6E72346BD
:104A9000A3F1200100FA01F1314210D1013A12F0E4
:104AA000FF020FD0013BDBB2272BF0D81F2BEFD832
:104AB00000FA03F12942F1D0174A5370D7E7164A9A
:104AC0005370D4E7144A5370D1E7134A5378966869
:104AD000556828220120002408E0234600FA03F14B
:104AE000294212D1013A12F0FF0211D00133DBB298
:104AF000272BF2D81F2BF1D9A3F1200100FA01F1E5
:104B00003142EFD0044A5370B1E7034A5370AEE725
:104B1000014A5370ABE700BFA8090020D004002071
:104B200013112201BD67000192B110B44B1E013078
:104B3000541E51FA84F15A7802F00F0200F8012C49
:104B400013F8012F120900F8022B8B42F3D110BC8D
:104B50007047000010B5044603220F4B9847637955
:104B60005BB923798BB9E37893B9A378002B14BF91
:104B70004FF440744FF4007401E04FF4C06401211D
:104B80000648074B9847204610BD4FF4A064F6E74F
:104B90004FF48064F3E700BF294B0001C48B000190
:104BA000C547000108B50222044B9847012104487B
:104BB000044B98474FF4806008BD00BF294B0001AB
:104BC000C08B0001C5470001F8B5060AC0B2331812
:104BD000062B12DC731EDBB2052B0ED84D1EC0F166
:104BE0000500C4B2A61BF6B2044F15F8011F2046FB
:104BF000B847013CE4B2B442F7D1F8BDCD4800015A
:104C000010B50D2800F2D380DFE810F00E001C0074
:104C10002700380046005700650079008A009B0095
:104C2000A600B700C500CA0001216148614CA04739
:104C300001216148A04701216048A0470121604847
:104C4000A04710BD01215A485A4CA04701215A489B
:104C5000A04701215948A04710BD01215948554C92
:104C6000A04701215248A04701215348A0470121F4
:104C70005248A04701215248A04710BD0121514888
:104C80004C4CA04701214A48A04701214A48A0476F
:104C900001214A48A04710BD01214548454CA04785
:104CA00001214648A04701214748A0470121474824
:104CB000A04701214248A04710BD01213C483D4C7E
:104CC000A04701213D48A04701213F48A0470121BD
:104CD0003E48A04710BD01213A48364CA04701216B
:104CE0003348A04701213548A04701213648A04755
:104CF00001213648A04701213148A04710BD0121BC
:104D000030482C4CA04701212948A04701212B48BD
:104D1000A04701212C48A04701212C48A04710BDE5
:104D200001212348234CA04701212448A047012109
:104D30002548A04701212548A04701212048A04738
:104D400010BD01211A481B4CA04701211B48A04758
:104D500001211D48A04710BD01211A48154CA0474C
:104D600001211348A04701211448A04701211648FA
:104D7000A04701211248A04710BD012111480D4C48
:104D8000A04701210A48A04701210C48A047012162
:104D90000D48A04710BD01210548064B984710BD9E
:104DA00001210648034CA04701210748A04710BD38
:104DB000C88B0001C5470001CC8B0001D08B0001DE
:104DC000D48B0001D88B0001DC8B0001E08B00014B
:104DD00010B5044603220B4B984723797BB9E3783F
:104DE000002B14BF4FF480644FF440740121064837
:104DF000064B98470C20064B9847204610BD4FF4B1
:104E0000A064F3E7294B0001E48B0001C5470001D2
:104E1000014C000110B5044603220B4B98476379FF
:104E20007BB92379002B14BF4FF4A0644FF4806446
:104E300001210648064B98470D20064B984720460F
:104E400010BD4FF4C064F3E7294B0001C08B000193
:104E5000C5470001014C000110B5044B98470446BA
:104E60000120034B9847204610BD00BF554B000161
:104E7000014C000110B5044B984704460520034B34
:104E80009847204610BD00BF554B0001014C000162
:104E900010B5044B984704460920034B9847204619
:104EA00010BD00BF554B0001014C0001F0B583B0AF
:104EB0000E480F4B984700238DF800308DF80130D5
:104EC0008DF802308DF803308DF804308DF8053000
:104ED000084BDB88012B00F06181002B00F013816F
:104EE000022B00F06E81044B5B7807E000C00340AA
:104EF000F3770001D0040020A8090020FF2B00F266
:104F00001081DFE813F06D01DF01E901F301FD011C
:104F1000070211021B0221022B0235023F02450249
:104F20004F02590263026902B302BD02C702D102F5
:104F3000D702E102EB02F5020F0325033B03510305
:104F400067037D039303A903BF03F3030A0421044A
:104F500067047E04A7040E010E010E010E010E016E
:104F60000E010E010E010E010E010E010E010E01C9
:104F70000E010E010E010E010E010E010E010E01B9
:104F80000E010E010E010E010E010E010E010E01A9
:104F90000E010E010E010E010E010E010E010E0199
:104FA0000E010E010E010E010E010E010E010E0189
:104FB0000E010E010E010E010E010E010E010E0179
:104FC0000E010E010E010E010E010E010E010E0169
:104FD0000E010E010E010E010E010E010E010E0159
:104FE0000E010E010E010E010E010E010E010E0149
:104FF0000E010E010E010E010E010E010E010E0139
:105000000E010E010E010E010E010E010E010E0128
:105010000E010E010E010E010E010E010E010E0118
:105020000E010E010E010E010E010E010E010E0108
:105030000E010E010E010E010E010E010E010E01F8
:105040000E010E010E010E010E010E010E010E01E8
:105050000E010E010E010E010E010E010E010E01D8
:105060000E010E010E010E010E010E010E010E01C8
:105070000E010E010E010E010E010E010E010E01B8
:105080000E010E010E010E010E010E010E010E01A8
:105090000E010E010E010E010E010E010E010E0198
:1050A0000E010E010E010E010E010E010E010E0188
:1050B0000E010E010E010E010E010E010E010E0178
:1050C0000E010E010E010E010E010E010E010E0168
:1050D0000E010E010E010E010E010E010E010E0158
:1050E0000E010E010E010E010E010E010E010E0148
:1050F0000E010E010E010E010E010E010E010E0138
:105100000E01C904DA040E238DF8003013238DF844
:1051100001300D238DF8023001238DF803304FF458
:10512000806469462046AF4B9847AF4B597821B908
:10513000AE4B1B88822B00F0CB83AD4C84FB01313E
:1051400049090620AB4DA847A74F7B78AA4EA6FB7E
:105150000321C90801EB8101A3EB4101C9B2082079
:10516000A8477B78A4FB03214909642404FB11317F
:10517000C9B2A6FB0131C9080720A8479F48A04B28
:105180009847A04B93F86033002B40F0A683974BD1
:105190001B88002B40F0A68303B0F0BD15228DF8CC
:1051A000002012238DF801300E238DF802308DF887
:1051B00003208DF804300D238DF805304FF4C064C2
:1051C000AFE715238DF8003011238DF801300A2345
:1051D0008DF8023014238DF803304FF48064A0E77B
:1051E000824B1B88162B5DD00CD8062B53D0122B6C
:1051F0003CD0022B60D102238DF8013003238DF8BF
:10520000023018E0412B2AD00DD9422B0DD0822B31
:1052100052D10A238DF8003002238DF80130032388
:105220008DF802302BE0402B46D106238DF801305B
:1052300002238DF802300E238DF8033000238DF801
:10524000043009238DF805306B460DF105015A78BD
:1052500003F8012B9942FAD14FF4A06461E70423CB
:105260008DF8013002238DF80230E4E70A238DF82F
:10527000003002238DF8013003238DF802300E2315
:105280008DF8033000238DF8043009238DF80530A4
:105290004FF4C06445E706238DF8013003238DF8F1
:1052A0000230C8E70A238DF8003006238DF801305C
:1052B00003238DF80230E2E711238DF801308DF8D9
:1052C0000230B8E750496846504B984704460121E0
:1052D0004F48504B984724E74F4968464B4B9847F7
:1052E000044601214D484B4B98471AE74C49684604
:1052F000464B9847044601214A48464B984710E7D9
:1053000049496846494B9847044601214048414B6A
:10531000984706E746496846444B984704460121AA
:105320003E483C4B9847FCE6424968463F4B98470D
:10533000044601213B48374B9847F2E63E49684610
:105340003E4B98470446ECE63D4968463B4B984740
:10535000044601212E482F4B9847E2E6394968461A
:10536000364B9847044601212C482A4B9847D8E6EB
:1053700035496846314B9847044601212948254B59
:105380009847CEE631496846314B98470446C8E60F
:10539000304968462E4B9847044601211C481D4B56
:1053A0009847BEE62C496846294B98470446012198
:1053B0001A48184B9847B4E628496846244B984742
:1053C000044601211748134B9847AAE6244968462A
:1053D000244B98470446A4E623496846214B984746
:1053E00004469EE6C94B0001A8090020D004002015
:1053F0001F85EB51CD480001CDCCCCCC808B00017A
:105400001549000124060020F1040020D14D0001BF
:105410006C8B0001C5470001F5040020708B000172
:10542000F9040020748B000101050020154E0001D5
:10543000050500200905002011050020594E000136
:1054400015050020190500201D0500202505002058
:10545000754E0001290500202D0500203105002092
:105460003D050020914E000139050020C8496846DD
:10547000C84B984704460121C748C84B984750E697
:10548000C7496846C34B984704460121C548C34BEA
:10549000984746E6C4496846BE4B984704460121F2
:1054A000C248BE4B98473CE6C1496846C14B984745
:1054B000044636E6C0496846BE4B9847044601217B
:1054C000B548B64B98472CE6BC496846B94B984757
:1054D00004460121B348B14B984722E6B8496846D3
:1054E000B44B984704460121B048AC4B984718E6A6
:1054F000B44BD3F8943003F00F028DF80020C3F3BF
:1055000003128DF80120C3F303228DF80220C3F3A8
:1055100003338DF803300121AB48A04B98474FF47B
:105520008064FEE5A74BD3F8983003F00F028DF8A6
:105530000020C3F303128DF80120C3F303228DF87A
:105540000220C3F303338DF803304FF48064E8E5A1
:105550009C4BD3F89C3003F00F028DF80020C3F36E
:1055600003128DF80120C3F303228DF80220C3F348
:1055700003338DF803304FF48064D2E5914BD3F8B8
:10558000A03003F00F028DF80020C3F303128DF852
:105590000120C3F303228DF80220C3F303338DF8F7
:1055A00003304FF48064BCE5864BD3F8A43003F09D
:1055B0000F028DF80020C3F303128DF80120C3F30E
:1055C00003228DF80220C3F303338DF803304FF428
:1055D0008064A6E57B4BD3F8A83003F00F028DF86A
:1055E0000020C3F303128DF80120C3F303228DF8CA
:1055F0000220C3F303338DF803304FF4806490E549
:10560000704BD3F8AC3003F00F028DF80020C3F3D9
:1056100003128DF80120C3F303228DF80220C3F397
:1056200003338DF803304FF480647AE5654BD3F88B
:10563000B03003F00F028DF80020C3F303128DF891
:105640000120C3F303228DF80220C3F303338DF846
:1056500003304FF4806464E55A4BD3F8B43003F060
:105660000F028DF80020C3F303128DF80120C3F35D
:1056700003228DF80220C3F303338DF803304FF477
:1056800080644EE5514B9B6803F00F028DF80020BB
:10569000C3F303128DF80120C3F303228DF8022017
:1056A000C3F303328DF80320C3F303428DF80420C3
:1056B000C3F303538DF8053001214348374B984716
:1056C0000220434B98479DF80530002B40F0FA80AC
:1056D0009DF80430002B40F0F8809DF80330002B3B
:1056E00014BF4FF480644FF440741AE500238DF822
:1056F00000308DF801308DF802308DF803308DF8D0
:1057000004308DF8053001212F48244B98470220A2
:105710002F4B98474FF4C06403E500238DF8003009
:105720008DF801308DF802308DF803308DF804309B
:105730008DF8053001212448184B98470220244B4E
:1057400098474FF4C064ECE4204B1B6A03F00F024F
:105750008DF80020C3F303128DF80120C3F3032258
:105760008DF80220C3F303328DF80320C3F3034204
:105770008DF80420C3F303538DF80530012112483E
:10578000064B98470220124B98474FF4C064C8E478
:1057900041050020914E00016C8B0001C5470001BE
:1057A00045050020708B000149050020748B000125
:1057B00050050020A54B000154050020580500208D
:1057C0005C050020D0040020E48B0001BC0900200F
:1057D000014C000100238DF800308DF801308DF868
:1057E00002308DF803308DF804308DF8053001213A
:1057F0006A486B4B984702206A4B98474FF4C06445
:105800008FE4694B9A6802F00F028DF800209A68C5
:10581000C2F302128DF801209A68C2F303228DF8B8
:1058200002209A68C2F302328DF803209A68C2F30C
:1058300003428DF804209B68C3F301538DF80530B3
:1058400001215A48564CA04701215948A0474FF41E
:10585000C06466E4544BDA68C2F303628DF800203A
:10586000DA68C2F301728DF80120DA68C2F30342EC
:105870008DF80220DA68C2F300528DF80320DA684E
:10588000C2F303228DF80420DB68C3F303338DF8E1
:1058900005304FF4C06444E401218DF8001000236A
:1058A0008DF801308DF8021010238DF803303B483D
:1058B0003B4B98474FF4806433E43E483E4B984757
:1058C00000242EE44FF4C0642BE44FF4A06428E4D9
:1058D00005210620394B984750E401213848304BC8
:1058E000984754E43748384B9847384B1B7A13F0A5
:1058F000010F2BD1354B1B88403B9BB2022B09D9A2
:10590000324B1B7A13F0020F25D1304B1B7A13F068
:10591000040F25D12D4B5B7A13F0080F25D0012100
:105920002B481F4CA04701212A48A04701212A48A3
:10593000A047264B93F90930002B4FF00101B9BF66
:10594000264823462648164B984725E4012125483A
:10595000134B9847CEE701212348114B9847D4E7D2
:10596000012122480E4B9847D4E7012120480C4CD6
:10597000A04701211F48A04701211748A047134B0A
:1059800093F90930002B4FF00101B9BF13482346AA
:105990001348034B9847FFF7FFBB00BFE48B0001A0
:1059A000C5470001014C000160140E40788B0001D6
:1059B0007C8B000100C00340CB770001CD48000183
:1059C000888B00018C8B000115490001D004002058
:1059D000A48B0001A88B0001AC8B0001B08B0001EF
:1059E000B48B0001988B00019C8B0001A08B0001FF
:1059F000B88B0001BC8B000170477047C8B130B54F
:105A000083B0054600200B4C0B49019400BF00BF3A
:105A100000BF019B00220132019BDB09A1FB03E3D4
:105A20009B0A01339342F6D80130A842EDD103B06E
:105A300030BD704700801A06C7541E0138B5104C9F
:105A4000236943F080732361236943F0007323616A
:105A5000236B43F080732363236B43F00073236352
:105A60000A20084DA847636B43F0807363630A20E4
:105A7000A847636B43F0007363630A20A84738BDEF
:105A8000000E0E40FD59000170B5244B5A6942F0DA
:105A900080725A61DB6B13F0807F16D11F4C0A268F
:105AA0001F4D09E0236B43F0007323633046A84782
:105AB000E36B13F0807F08D1E36B13F0007FF1D02C
:105AC000636B43F000736363F0E7144C636B43F064
:105AD00000736363236943F080732361236943F098
